:10000000E01F0010552600008D26000091260000FC
:1000100000000000000000000000000000000000E0
:100020000000000000000000000000009526000015
:100030000000000000000000992600005D040000A0
:10004000A1260000A5260000A9260000AD2600007C
:10005000B1260000B5260000B9260000BD2600002C
:10006000C1260000C526000081040000CD26000046
:10007000D1260000D5260000D9260000DD2600008C
:10008000E1260000E5260000E9260000ED2600003C
:10009000F1260000F5260000F9260000FD260000EC
:1000A0000127000005270000092700000D27000098
:1000B0001127000015270000192700001D27000048
:0402FC00FFFFFFFF02
:10030000402292029A1A92467047C046174B002B21
:1003100000D1134B9D46FFF7F3FF00218B460F469C
:100320001348144A121A05F085F90E4B002B00D021
:1003300098470D4B002B00D0984700200021040067
:100340000D000D48002802D00C4800E000BF05F069
:100350003FFA2000290002F0B7FC04F059FEC04625
:10036000000008000000000000000000E01F001076
:10037000640000105802001000000000000000009F
:100380000422034B99681142FCD0D8617047C046E3
:1003900000400640F0B501270026124C87B001A9A5
:1003A000050020008E80019700F0A0FC0E4B20007D
:1003B00003A905930397049600F0F4FC8023A26838
:1003C0001B061343A3608023A268DB041343A360CE
:1003D0002A000021034800F053FD0028F8D007B0A0
:1003E000F0BDC04600C00140010000018E23F7B5FA
:1003F000012102250026154C9B00E25868468A43DD
:10040000E250E258124FAA43E250124B1E606B4674
:100410001E71114B009300F0F9FAC020A84000F0C3
:10042000E1FB0323FF223B60A36F93431D43A567BA
:1004300000F084F803233B6023000121E4331E60B5
:100440001960C823E8342360F7BDC046008004402B
:10045000E08004404080044000879303034B1A6807
:10046000002A02D01A68013A1A607047640000102E
:10047000024B18601A68002AFCD170476400001013
:10048000044B5A695A6951424A415A610122024B4E
:10049000DA6070476400001000400040F8B5802327
:1004A000154CDB02E26F102713438022E367E36FF2
:1004B000124E134D1343E367280077640022012195
:1004C00000F0ECFB280037610422002100F0E6FB7D
:1004D0000023802133642800F3630122C90100F066
:1004E000ECFB802128000122890100F0E6FB80223C
:1004F000E36F9343E367F8BD048004400040044089
:1005000000C00040802310B501240A4ADB01D16FEE
:1005100003200B43D367084B1C6000F0B3FB00F0D3
:10052000D5F9E121030022004902002001F0BDFCC1
:1005300010BDC046048004409480044010B51F4C98
:100540000020636ADB051B0F013B0E2B02D81C4AFF
:100550009B0098580322616A236F1340022B13D02B
:10056000934218D0012B26D1206C1040033843420F
:100570005841144B40421840134BC018A16F02F071
:1005800039F9124C206010BD1F2319400131490078
:1005900002F030F9F2E7A268206C1F2118400338FE
:1005A00043425841074B40421840074B0A40C0188D
:1005B00001325043E2E70448E0E7C04600800440CF
:1005C000D05A000000E548FF001BB70000000010F3
:1005D000704710B5044B054A9360054B054A1A60F5
:1005E000FFF7F6FF10BDC0460000000000ED00E080
:1005F00000000010001BB700431E70B55B184D4291
:100600000C002B40984201D9002070BD05225242B7
:10061000521A9A42F8D3081DC01804F00DFD0028A4
:10062000F2D0033423181D40034A2B1F281A588088
:100630001A802800E9E7C04639300000031F054A48
:10064000198810B5914203D15B88C01A04F0FEFCF2
:1006500010BDC046393000000A0010B500280BD08C
:100660000023190002F0A4FC0023044A02F096FAC9
:10067000001C01380028FCD110BDC04600093D0017
:100680004023044A10B5D16F0A200B43D36700F012
:10069000F9FA10BD0480044070B54024104DEE6F8F
:1006A0003443EC6701249440220080241E788D009E
:1006B000A401002E04D145192B5993432B5170BD31
:1006C0005B78002B09D18A231B01C91889000A50C5
:1006D0004019035913430351F1E78823F4E7C04657
:1006E00004800440EFF3108172B60720064A1368B5
:1006F00083431360054A033813698343136130BF92
:1007000081F310887047C0460000024000ED00E011
:1007100010B5EFF3108172B607230C4C22689A4390
:10072000063B13438C222360094C9200A358834359
:100730000420A350074B1A6902431A6130BF1A699B
:1007400082431A6181F3108810BDC0460000024048
:100750000080044000ED00E010B5EFF3108172B6A8
:1007600007230C4C22689A43053B13438C222360D9
:10077000094C9200A35883430420A350074B1A69E5
:1007800002431A6130BF1A6982431A6181F31088EB
:1007900010BDC046000002400080044000ED00E0B3
:1007A000EFF3108172B60F23084802689A430C3B9E
:1007B000134303600420064B1A6902431A6130BFD9
:1007C0001A6982431A6181F3108870470000024061
:1007D00000ED00E030B50E4A172811D905000123BD
:1007E0008121183DAB4089005458234353500028C1
:1007F00005DB1F2318401E3B8340064A136030BDB3
:100800000123852183408900545823435350F0E746
:100810000080044000E100E010B5002809DB1F2241
:100820000123024093400B4AD367BFF34F8FBFF3BE
:100830006F8F094B172808D98124A4001A5918383A
:10084000012181408A431A5110BD8524A4001A5900
:10085000F6E7C04604E100E00080044003688B43F3
:10086000036003680B43036003681942FCD07047C0
:1008700000487047001BB7008E23044A9B00D358E2
:1008800000209B0601D4024B18687047008004408A
:100890007C0000100A4B10B5186C03231840012887
:1008A00007D0984208D043425841064B4042184076
:1008B00010BDFFF7E1FFFBE7034B1868F8E7C04600
:1008C00000800440001BB7007C00001010B50D4CE8
:1008D0000020236F032B06D8180001F077FF1002C9
:1008E0000508FFF7D7FF10BD074B5868FBE7FFF778
:1008F000D1FF1F22A368134001335843F3E7034895
:10090000F1E7C046008004407C000010001BB700E7
:100910000F4B10B51C680F4B00201B68E4B2032B73
:1009200006D8180001F052FF12020C0FFFF7A4FFC7
:10093000002C03D0210001F05DFF0400200010BD59
:10094000054B5868F4E7FFF7C1FFF1E70348EFE70D
:10095000E8800440E08004407C000010001BB700E9
:1009600010B5FFF7B3FF0A4BFF241A6813002340AA
:1009700022420BD0074A010E1268000222400132C7
:10098000FF325A43002302F009F90300180010BD9A
:1009900094800440F480044010B5FFF7E1FF10BDDF
:1009A00010B5FFF7DDFF10BD10B5FFF7D9FF10BD83
:1009B00010B5072821D801F009FF060E20041117F1
:1009C00020140F4810BDFFF781FF0E4B996FC9B27D
:1009D00001F010FFF6E7FFF779FFF3E70A4B18681D
:1009E000F0E7094B5868EDE7FFF754FF1F22054B6E
:1009F0009B68134001335843E4E70020E2E7C04618
:100A0000001BB700008004407C0000108E22802371
:100A100070B51F4C9200A15806000B430321A35050
:100A2000236C226C8B43134302791A4813432364CB
:100A3000FFF714FFFFF72EFF3668010005003000B6
:100A400001F0D8FE144A0023964208D8134A013315
:100A5000964204D80023124AB2425B4102331F2659
:100A6000A168421E32406036B1430A435B01134322
:100A70008E228021A3609200A3588B43A3500123B0
:100A8000E2681A42FCD06843064B986070BDC046CD
:100A90000080044044800440802FA604C017530205
:100AA000E08B29017C0000101821074A10B5D36A99
:100AB000064C8B43D362E022054952008B582340F9
:100AC0008B50044B186010BD00400440FFFDFFFF39
:100AD00000C000407C0000101821104A10B5936B34
:100AE00004008B439363E02240200D4952008B5851
:100AF00083438B500B4BC03A196AFF3A0A438E214D
:100B00001A6289005A5820388243DA305A5040001D
:100B10000549FFF7A1FD054B1C6010BD00400440D6
:100B200000C000400080044080C3C9017C00001068
:100B30001821154B10B55A6B04008A435A639A6BFF
:100B4000C0208A439A63E022104952008B588343A5
:100B50008B500F49BD380B6A0A6A834313430D4A11
:100B60001D30A24292415242520013438E220B6228
:100B700092008B588343DA308B5040000649FFF7D0
:100B80006BFD064B1C6010BD0040044000C00040DF
:100B900000800440C0E1E40080C3C9017C00001073
:100BA00070B5F0250D4CC20C636A6D005B0A2A40DB
:100BB0005B021A43C23D4B08FF3D013B2B401343F0
:100BC0008E2263629200A3582135AB430002A350EA
:100BD000000A01F00FFE024B586070BD0080044017
:100BE0007C00001010B503240949020A0B6F234052
:100BF0009A420BD0C0B2002808D10B6F2240A34309
:100C000013430B6703480121FFF728FE10BDC046C0
:100C10000080044074800440F8B50400FFF756FEDD
:100C2000114B06001B685C43211E1BD00021A04213
:100C300018D3210001F0DEFD0021012812D80B009D
:100C400022000D003400FF27A41A9D410748290205
:100C50000760200E0143200201F0A0FF0121044B98
:100C6000384018600800F8BD94800440F0800440CB
:100C7000F480044010B501210148FFF7EFFD10BDDD
:100C8000E480044001228240034B5968914359603B
:100C900059680A435A60704700800440032310B526
:100CA000FF240B40DB009C409A40890889004018D3
:100CB0000168A1430A43026010BD002A07D0002941
:100CC00004DBE022520083588B4383507047002995
:100CD000FCDBE0235B00C2581143C150F6E78900FA
:100CE00093B24018120D80180360704780230E4A9B
:100CF00010B5D46F5B042343D3670023802243667F
:100D00000B79D2005B4213400A68D2B2134320220F
:100D10000360C36E9343C3664B79C46E5B0113409B
:100D20002343C36610BDC0460480044010B50822AA
:100D3000002104F07FFC10BD024A0349D36F0B4031
:100D4000D367704704800440FFFFFFFEF8B504003E
:100D5000FF27256823680800BB4323600E4901F084
:100D600049FD2668013838403043802620609620AF
:100D700023680A4AF6051340236023684000334382
:100D800023600749FFF768FC236800202560334291
:100D900000D10120F8BDC04620A10700FFFBFFFFE6
:100DA00080C3C901E0234A68DB0110B512031A4071
:100DB0000B681B051B0D1A430B7A012B02D18023F4
:100DC000DB021A4380244B7A24035B422340134303
:100DD000CA7A012A02D18022D20513438A7A80215D
:100DE000490552420A401343836010BDE0234A681C
:100DF000DB0110B512031A400B681B051B0D1A43CB
:100E00000B7A012B02D18023DB021A4380244B7A18
:100E100024035B4223401343CA7A012A02D1802271
:100E2000D20513438A7A8021490552420A4013436E
:100E3000C36010BD0322006903041B0D0B60030C8B
:100E400013400B71830C13404B7183001B0F8B609D
:100E50004300DB0FC00F0B7370470322406903048C
:100E60001B0D0B60030C13400B71830C13404B7173
:100E700083001B0F8B604300DB0FC00F0B737047A9
:100E8000083189000858032103041B0D1360030C6B
:100E90000B401371830C0B40537183001B0F936045
:100EA0004300DB0FC00F13737047C046F7B5002532
:100EB00001270B4E0B4B34681B68234001933C42C7
:100EC00005D0094BAA00D358002B00D098476408DE
:100ED00002D00135082DF2D1019B3360F7BDC04629
:100EE000F4400050F0400050880000108023264A53
:100EF00070B50D00D16F5B000B430400D367082071
:100F0000FFF7C0FE78210620AB782A78DB000B4083
:100F1000697849000140F0200B43297A40014902D9
:100F2000014013430B432360EB7869791B014901AE
:100F30000B4304210B436360082361680B43636028
:100F4000002A0FD12B79AA791B0552051343802261
:100F50006168D2020B4313436360802362681B0302
:100F600013436360EB7900252365084C2900202298
:100F7000200025626562A562E56204F05BFB044B1C
:100F80002800236370BDC046048004408800001020
:100F9000AD0E00004268044B04491343044A436009
:100FA000D36F0B40D367704704000400FFFEFFFFC0
:100FB0000480044010B5082204000021013004F030
:100FC00039FB012323700E33237210BDF7B51E00C9
:100FD0000B00A033DB00C3185B6804000193F3002F
:100FE000C318C1200F25C32780001858BF00284010
:100FF000DB594030800000591D4063689C46042343
:1010000067463B436360632A1CD90123019FF6189E
:101010001A00F7408A4002301F4210D0236D13435C
:101020002365AB00E3181A00FC3250608022920066
:1010300098506368FD3AFF3A93436360F7BD236DB0
:101040009343EDE70023190001F0B2FF642200236F
:1010500001F0A4FDE5E7F7B5040045481500066A70
:1010600008AA012012780193072E1CD88B040F00C8
:101070009B0F022B18D1F022019B92009B01134081
:1010800032006032D2000B43A2185360012238496B
:1010900000204B6A9A4033006033DB001A51099BF1
:1010A0001E6001360E62FEBD0921D940014205D005
:1010B000019B9901F0239B0019400F4301239A42A1
:1010C00019D1236810001342EDD129498A6A072AF1
:1010D000E9D89300E3181800ADB2FE3045808020B7
:1010E000800017431D5233006033DB00E3180132E8
:1010F0005F608A62CAE7022A26D1226818001A4273
:10110000D1D11B49CA6A072ACDD83B001027134307
:101110001F439300E3181800FE3040882D04284335
:10112000AC461D00FC356860802080001D5A60467A
:101130000543802080001D5033006033DB00E3183E
:1011400001325F60CA62A1E71800042AABD12268AD
:101150001A42A8D006498A6A072AA4D89300E3183D
:101160001800FC3045608020800017431D50BAE70E
:1011700088000010F0B51D00002387B0049305938C
:10118000544B0E001B6A0400023341680292082B84
:1011900002D9012007B0F0BD4909C9B20C9801314C
:1011A00001F028FB029B012B08D162680F33134327
:1011B0006360690001F01EFB050006E0029B002B46
:1011C000F7D1290001F016FB451EB278632A43D9F6
:1011D000AB1C03930427802104AB2A00019349012F
:1011E000002320000097FFF736FF802105AB0500A4
:1011F000019320000023039A00974901FFF72BFF7A
:101200002843C6D101221100049D6B46A9400391D9
:101210001100A7681B7B3B43A3600D9B17001D605B
:10122000059D3378A9400D0071789F408C46DE0003
:1012300091422ED10299284A002918D1236DA6196E
:10124000BB432365A024E400335903990B43335176
:10125000B3582B43B3509DE700232800190001F039
:10126000A7FE6422002301F099FC0390B2E7216DF0
:10127000A61939432165B1585B002943B1500321B8
:101280009940626D8A43614699400B001343636540
:1012900080E7029900290BD1236DA6193B432365F2
:1012A0000D4B0399F2581143A022F150D200CFE721
:1012B000216DA619B943A0272165FF00F1595B00F4
:1012C000294303259D409A40F151616DA9430A438A
:1012D00062655FE78800001004050000064B10B54A
:1012E0005C6A0123C022A340C900401892008158C3
:1012F0000B43835010BDC04688000010044A0120F3
:10130000536A072B02D81B18002053627047C0464F
:1013100088000010014B586A7047C04688000010D2
:1013200070B501249440094ECB00C3189D5922008A
:101330002543A0249D51E4001D5949002A431A5118
:1013400003238B40826D1343836570BD0405000049
:10135000F7B50400204D0092012901D004291CD1C9
:10136000A96A0120072917D880278E00A619BF0077
:10137000F25B4C34944602009A4013006246884067
:1013800013439BB2F353238803439BB22380009BF8
:1013900019600131A9620020FEBDE96A0120072918
:1013A000FAD880278E00A619BF00F25B01920200D6
:1013B0009A401304094A88401340019A00041343D9
:1013C000F35123004C331B881843009BE0641960E1
:1013D0000131E962DFE7C0468800001000F0FF0F2E
:1013E000014B9200995070478800001010B5024BD5
:1013F00002481B6B984710BD880000100040005049
:101400008023054A10B5D16FDB000B430720D3675B
:10141000FFF738FC10BDC0460480044080231B0643
:10142000044A0360036103620363D36F02490B4004
:10143000D367704704800440FFFBFFFF30B50625EB
:1014400009014418A4682C40022C01D0002B02D0C2
:1014500080231B061A43425030BDC046704703002C
:1014600010B50800002B01D0984710BD034A13683F
:10147000002BFAD0591C11601870F6E7BC00001060
:1014800010B5034B01005868FFF7E9FF10BDC046D7
:10149000BC000010F0B50E00150091B0019031783D
:1014A000002900D114E1252905D001360198FFF764
:1014B000D6FF2F00C4E07178302916D10591B1789C
:1014C000F31C002200922A291BD000220A2003923A
:1014D0000A00303A1E00092A1CD8039A42435218C7
:1014E000303A197803920133F2E72D2903D02022F4
:1014F000B31C0592E5E72022B1780592F31C1E3A51
:10150000E0E704CD002A02DA022152420091197864
:1015100003925E1C2E2971D131782A290DD0002426
:101520000A22731C080030381E00092808D85443CA
:101530006418303C19780133F4E710CD7178023625
:101540006C2905D10422009B3178134300930136A6
:10155000002900D1BCE07829A8D86E2951D8632988
:1015600068D062D8582900D1A3E0022302936229EF
:101570009CD12B682F1D642906D1002B04DA01228F
:1015800000985B421043009006930723782900D10E
:1015900027230025DBB207930698029901F0B0F9E2
:1015A000069ACBB20690092902D90799CB18DBB26B
:1015B000303308A96B54029B6C1C934202D8202C38
:1015C0007BD11F25009BDB0703D52D2308AA1355CC
:1015D000AC1C009B25009B0776D5013C08ABE15C69
:1015E0000198FFF73CFF002CF7D1039BAB4227D9B2
:1015F00020210198FFF733FF0135F6E7012464420B
:101600009EE708006F38092800D94FE701F0E8F895
:1016100053004EFF4EFF4EFF1A004EFF0A004EFFD2
:101620004EFF51000A230293A3E70A230293642981
:101630009FD03BE72F0002CF0198C9B2FFF70FFF01
:101640003D002CE72F0020CF002D00D1214D002C94
:1016500003DB049BA34200D904940223009A1A409E
:101660000292049B01330093029B002B11D02C1992
:101670002978002901D0A54216D1039B049A9342F0
:10168000DED920210198FFF7EAFE049B0133049381
:10169000F3E7049B039A9342E9D205990198FFF777
:1016A000DEFE009B0493DCE701980135FFF7D7FECF
:1016B000DEE71023B7E70823B5E725006CE70599B7
:1016C0000198FFF7CCFE0135039BAB42F7D884E7C6
:1016D00011B0F0BDA05B000070B505000C002178D2
:1016E000002900D170BD28000134FFF7B8FEF6E7ED
:1016F00010B5034B01005868FFF7EEFF10BDC04660
:10170000BC0000100FB407B5054B04AA02CA586804
:101710000192FFF7BFFE03B008BC04B01847C046F3
:10172000BC0000100EB403B503AA02CA0192FFF771
:10173000B1FE02B008BC03B018470EB417B5084C90
:1017400005AA02CA206000200192FFF7A3FE002331
:1017500022682360137017BC08BC03B01847C0464A
:10176000BC000010074A03000020934208D0064A3C
:101770000130934204D0054A9818431E9841023024
:101780007047C04600400640008006400040F9BF58
:1017900030B5448C018C0300A5B28AB2081B8C4280
:1017A00002D9DB69D218501B30BDF0B50B690500BA
:1017B0000C00012685B0002B02D18E69731E9E415C
:1017C00063680293AB6801936B69019A039380236A
:1017D0005B001A420AD0AA68676A1343AB60002F05
:1017E00004D021002800A36A3D4AB847002E24D027
:1017F000019BDB0721D56B461E7B2369002B3DD067
:10180000E3681E702369013B2361E3680133E360F1
:101810002369002B11D1A369002B02D10223FF33CE
:101820002B61230002222D331A70666A002E04D029
:1018300021002800A36A2B4AB047029B002B1BD033
:101840000422019B134217D023681B78EB61636865
:10185000013B63602368013323606368002B0BD175
:101860002A6122002C321370666A002E04D02100F7
:101870002800A36A1C4AB04705B0F0BDA369002B3D
:10188000DBD02000FFF784FFE369013B984207D1DA
:10189000676A002F04D021002800A36A134AB847C2
:1018A0002000FFF775FFE269531E984205D1638C53
:1018B000013393420CD100236384238CA269D65454
:1018C000238CE2690133934206D100232384B4E7D9
:1018D000638C01339BB2EFE7238C01339BB2F5E7B6
:1018E0004916000047160000461600004A16000080
:1018F000CB6100230B844B840223FF338A61C360D6
:1019000070470B002D331B78022B02D10223FF33CB
:10191000036100230B848B61CB614B8470470823E8
:1019200010B582681A42FCD001240368A343036007
:10193000FFF718FF0349044A095CD36F8C40A343A7
:10194000D36710BD0C5B00000480044010B50C226E
:1019500004000021043003F06DFE96239B012360F8
:101960000123E37210BDF0B5036887B005000C00D9
:1019700001921B0507D5100000F03CFF01382862DA
:10198000002007B0F0BD0A2301270F26019A7F42ED
:10199000534305930B010093039602970099059812
:1019A00000F028FFA02305381B03984213D20A2118
:1019B00000F020FF731C411C59430490019800F073
:1019C00019FF231A844200D2031B029A934202D2C7
:1019D000049F03960293009B013E1B1B0093072E5E
:1019E000DCD180235B029F4203D2039BAB622F6258
:1019F000C6E70148C5E7C0464F160000F8B5012606
:101A00000D0004001700FFF7ADFE3749CB6F310022
:101A10009C46364B1A5C033391400A0061460A43E8
:101A20003149185CCA67FFF72DF98020AB79297A14
:101A30002A7B4902DB030B43000191020140302065
:101A40000B43697A9203090101400B43A97A1030D4
:101A5000890101400B43E97A3438890001400B4386
:101A60008021C9010A4013436A7B802182404901D9
:101A70000A40134329681E432660002906D1EB79EA
:101A8000002B0BD163681A4A13400BE03A00200088
:101A9000FFF769FF0028F2D016481FE08023626834
:101AA0005B00134363606B79002B0FD00123226826
:101AB0001343402223606368934363602B79002BB8
:101AC00008D0012322681343236006E040236268A4
:101AD0001343F2E763685B0601D40020F8BD0122DE
:101AE00023689343F0E7C046048004400C5B000089
:101AF000FFFEFFFF4F160000042310B58A18914225
:101B000005D1082382681A42FCD0002010BD8468E9
:101B10001C42FCD00C780131C461F0E7F7B58B189A
:101B200001938023802680279B01040001259C4689
:101B30007600FF01019B994201D10020FEBDA36800
:101B40002B42FCD0A268A3681343A360324212D197
:101B500010003840431E9841094B404218406346EC
:101B60001A4200D00748120407D40028E6D163695E
:101B70000B700131DEE70448E0E70448DEE7C046C9
:101B80004D1600004C1600004E1600004B160000CB
:101B9000F8B50C001E001700FFF7E4FD3022050029
:101BA0000021200003F046FD230002222D331A708D
:101BB0000022013B1A700A4BAA00D450094A6762FE
:101BC000DA60094BA6625B57002B06DB1F2213402D
:101BD0001E3A9A401300054A13600020F8BDC04623
:101BE000C4000010AB170000125B000000E100E031
:101BF0000B0010B52C331C78012C0ED014685268E1
:101C00000C608A604A6001221A700423C360436832
:101C10003F3293434360002010BD0148FCE7C046BB
:101C2000441600000423036142683C3313434360BD
:101C300000234B602C310B7070470B002C331B784A
:101C40000620002B04D048688B681B1A0020136004
:101C50007047F7B517000A0001932D32137806007C
:101C60000C00032B53D08B697D68002B44D00123DB
:101C700003610800FFF78CFD0090002808D0A842FF
:101C800000D90095009BED1A0023009A93420DD1D4
:101C9000002D1ED10123656AF360002D26D1019B22
:101CA000002B01D0009A1A600020FEBD608CA26952
:101CB000591C125C3868C254638CE069013383425A
:101CC00003D1002363840B00DFE7638C01339BB2F5
:101CD000F8E73B68009A9B18E3607B6825616361C5
:101CE00003232D342370023BF360D8E7210030003A
:101CF000A36A084AA847D2E739686561E160032111
:101D0000256111700222FF32C2600093C7E70248CA
:101D1000CBE7C04647160000451600008B69002B34
:101D200002D10223FF33036100230B612D31023303
:101D30000B7070470B002D331B780620022B04D04C
:101D400008694B691B1A00201360704710B5034BDC
:101D50000348DA681968904710BDC046C4000010F7
:101D60000040064010B5034B0348DA6859689047B5
:101D700010BDC046C40000100080064010B5034BE3
:101D80000348DA689968904710BDC046C400001047
:101D900000C0064030B50C0085B005006846FFF76E
:101DA000D5FD63680093237A022B02D0032B00D069
:101DB00000236A465372637A6946013B5A42534193
:101DC0006A469372A37A5A1E93416A461371E37A64
:101DD0005A1E93416A465371A07B074B80002268CC
:101DE000C058FFF70BFE002803D1A37B2B7005B072
:101DF00030BD0248FBE7C046185B0000AF2F000073
:101E000010B50278034B9200D058FFF788FD0020F0
:101E100010BDC046185B00000078064B8000C0581B
:101E200010B5FFF77BFE431E9841034B404218401C
:101E300010BDC046185B0000AF2F000010B5007841
:101E4000034B8000C058FFF757FE002010BDC0466E
:101E5000185B00000020704700207047F7B516009F
:101E6000002202700F680500974218D06132002BE3
:101E700000D0203A01240A3A01923800310000F0E3
:101E80003FFD019B3A005B180700092901D80B00B0
:101E900030332B55631C964205D9200002E03023D5
:101EA00043700120FEBD1C00E7E770B5060001206D
:101EB0000C0086B0824213D102940024094D019394
:101EC000094B01A92874280003938C818E73CC736D
:101ED0000C74FFF75FFF2000044BAB60044BEB601A
:101EE00006B070BDD4000010000001013D1E0000CE
:101EF000191E000010B5054C237C002B04D02000D7
:101F0000FFF77EFF00232374002010BDD4000010D3
:101F100007B501900648037C002B05D00122836899
:101F200001A9984701200EBD01204042FBE7C046B1
:101F3000D4000010F0B5764B06001B7C0C0093B06B
:101F4000002B00D1D6E000252F00089503953078AE
:101F5000002800D1D0E0252829D0FFF7D9FF01368D
:101F60000135F4E70A21019A029E4A43303A9B1850
:101F70000193731C029373781A00303A092AF1D93D
:101F80002E2B1AD00296029B5E78782E0DD8632EE7
:101F900019D800D17FE03300463BDBB21C2B04D8BC
:101FA0005C4A1A4101231A4244D0300074E00023F5
:101FB0000193DEE7029B01330293029B5B78303B87
:101FC000092BF7D9DFE733000122643BDBB29A40EB
:101FD0001300514A134200D091E0732E60D00122C9
:101FE0001342E2D008CC0A22079307A9012309A8CB
:101FF000FFF734FF070009AB1B180393702E33D093
:1020000026D8622E26D06F2E24D03E00019BB342EC
:102010002FDC0199FA0FDB17B94253410022DBB2E2
:10202000934200D0CA1B039BAD18002B31D1029EF6
:1020300002368CE7582EE1D104CC0892102208A970
:1020400009A8FFF70BFF09AB1B1807000393DCE798
:10205000752EDAD108CC0A220893702E07D8083AD8
:10206000622E04D0063202E0102208CC089301232D
:10207000E5E72020FFF74CFF0136C7E7013EFFF7F9
:1020800047FF30780028F9D1039B03965D19AD1BFB
:10209000CDE7039EF5E701CCFFF73AFF0135C6E730
:1020A00008CC0493002BC2D01800FFF7D7F9070023
:1020B00006000590019BB34217DC059B019A01992C
:1020C0000598D217DB0F814253410022DBB29342C5
:1020D00000D00A1A55192E00049B9B1B585D00283E
:1020E000A5D0FFF715FF0135F6E72020FFF710FF19
:1020F0000136DFE701256D42280013B0F0BD692EDF
:1021000000D16FE7782E00D078E7002394E7C0462F
:10211000D4000010FEFFFBEF241812000FB407B527
:1021200004A901C90191FFF705FF03B008BC04B081
:10213000184713B50848037C002B02D10120404208
:1021400016BD6B46DC1D01222100C368984700289C
:10215000F4D12078F4E7C046D40000100FB430B5B5
:10216000154B89B01B7C002B22D000240DAB0193B2
:1021700002AD2C70FFF7DDFFC0B228550D2801D04D
:102180000A2805D1002CF4D000232C19637004E038
:102190000134142CEED100232B752800019A0C99E0
:1021A00000F010F9C0B209B030BC08BC04B0184748
:1021B00001204042F7E7C046D40000100300012090
:1021C000202B05D000200422093BDBB29A4240417B
:1021D000704770B50025036804001878FFF7EEFF1C
:1021E000012801D0280070BD236801355A1C2260E7
:1021F0005878F3E7F7B51600002202700F68050063
:10220000974218D06132002B00D0203A01240A3ABC
:1022100001923800310000F073FB019B3A005B181B
:102220000700092901D80B0030332B55631C964257
:1022300005D9200002E0302343700120FEBD1C00C0
:10224000E7E7F0B51F00002306000C008FB00092F6
:10225000029304933278002A00D1ACE0252A2CD0D6
:102260000123009802A90136B847F3E70A230E00BC
:102270005D43303D55197278711C1300303B092BBA
:10228000F4D92E2A1CD031000B005A7804201300F8
:10229000019183430131682BF6D0642A15D0692A55
:1022A00013D0130020218B43462B25D1072307345D
:1022B0009C430834019E0236CCE70025DBE7013160
:1022C0004B78303B092BFAD9DEE723680A220393C7
:1022D00003A9012305A8FFF78DFF202205AB1E18D7
:1022E0002B1A009802A9B8473278002A01D1043489
:1022F000E0E70123013EF4E7582B17D12368783A31
:102300000493531E9A4104A9D3B205A81022FFF7E3
:1023100071FF202205AB1E182B1A009802A9B8479E
:102320003278002AE3D00123013EF6E7110062393A
:10233000C9B213293DD821480123C840184214D1FD
:10234000632A30D0732A34D12668002ECFD03000D3
:10235000FFF784F820222B1A009802A9B847327898
:10236000002AC4D001230136F6E72368702A04D17D
:102370000E210493124B5A5C03E00A2204930E29A7
:10238000F8D9012304A905A8FFF734FF202205ABE3
:102390001E182B1A009802A9B8473278002AA6D036
:1023A0000123013EF6E704CCD2B2009802A9B84757
:1023B00080E70123F9E702980FB0F0BD0160080043
:1023C000245B0000F0B503788DB00392069107906E
:1023D000002B00D138E10023019307E006A8FFF7A6
:1023E000F8FE051E0CD007A8FFF7F3FE069B1B782E
:1023F000002B0DD0079B1C780493002CEED107E036
:10240000069B19785A785F1C252904D094422CD059
:1024100001980DB0F0BD252AF8D06323040006977B
:10242000029300903E78002E06D07C232340059333
:102430007C231C421FD000260697012EE8D07C2763
:102440002740042F6ED100220120039B02CB029C67
:10245000AC4261D1002A03D0A446049A6244079298
:10246000019A039301320192C0E7049A02330132C8
:1024700007920693BAE7692E3FD012D8632E40D058
:102480000BD8392E03D82F2E19D80126D4E7582E71
:10249000FBD120231C43103B2DE0642EF5D16C4C66
:1024A00024E030006F38C3B2092BEED80928ECD8ED
:1024B00000F082F91EEBEBEB2EEB1AEBEBEF03F0E7
:1024C00081F9059B0A22036009A9380002F00CFF7C
:1024D000060003F077F90368002B00D10596099FE9
:1024E000059B013F029315E020231C430A2302E0D1
:1024F00020231C43183B00930CE020231C43059B26
:10250000F9E704231C43029B632B03D10123E9E772
:1025100008231C43013785E7049A525D4A5502009F
:10252000013594E7082F2BD1002607A8FFF751FEAD
:10253000039F029B10CF079D1B190293029B0395DB
:10254000A3420ED1002E00D0079500232370019BDB
:1025500003970133019349E7009B0126237001345F
:10256000ECE72B780093002BECD00098FFF726FEC9
:1025700001350028F0D0002EE7D0039B0793E4E755
:10258000202F00D044E707A8FFF723FE079D009AFD
:102590002B78002A3AD10A320092302B36D16B7850
:1025A0000632BB430092582B01D00823009301232D
:1025B0000493AD1928000795FEF750FF029B9B1B63
:1025C00009AE83422ED200270B222900300003F0EF
:1025D0002FF9F77203F0F6F8009A076008A93000A7
:1025E00002F082FE070003F0EDF80368002B00D034
:1025F0000EE7089B9B1BEB180793049B039A5F4312
:1026000008CA03921F60019B0133E5E62B2B06D01D
:102610002D2BCCD101235B4201260493C9E701266F
:102620000496C6E703F0CEF8002331000360009A59
:10263000280002F059FE070003F0C4F80368002BDD
:1026400000D0E5E6099BD7E701204042E1E6C0461D
:102650002020000072B6074880470749074A084B08
:102660009B1A03DD043BC858D050FBDC62B605481A
:1026700080470000D3050000745D000000000010DA
:10268000640000100D03000025480047254800475E
:10269000254800472548004725480047254800476A
:1026A000254800472548004725480047254800475A
:1026B000254800472548004725480047254800474A
:1026C000254800472548004725480047254800473A
:1026D000254800472548004725480047254800472A
:1026E000254800472548004725480047254800471A
:1026F000254800472548004725480047254800470A
:1027000025480047254800472548004725480047F9
:1027100025480047254800472548004725480047E9
:10272000892600008D2600009126000095260000D5
:10273000992600005D04000089260000892600001B
:10274000892600004D1D0000651D00007D1D000054
:10275000892600008926000089260000ED1300006C
:1027600089260000892600008926000089260000AD
:10277000892600008926000089260000892600009D
:10278000892600008926000089260000892600008D
:10279000892600008926000089260000892600007D
:1027A000892600008926000089260000892600006D
:1027B000892600008926000002B4714649084900B4
:1027C000095649008E4402BC7047C04602B47146A7
:1027D00049084900095C49008E4402BC7047C04664
:1027E00003B47146490840004900095E49008E441F
:1027F00003BC7047002243088B4274D303098B4209
:102800005FD3030A8B4244D3030B8B4228D3030CC0
:102810008B420DD3FF22090212BA030C8B4202D362
:102820001212090265D0030B8B4219D300E0090A8A
:10283000C30B8B4201D3CB03C01A5241830B8B4293
:1028400001D38B03C01A5241430B8B4201D34B037C
:10285000C01A5241030B8B4201D30B03C01A5241E1
:10286000C30A8B4201D3CB02C01A5241830A8B4266
:1028700001D38B02C01A5241430A8B4201D34B024F
:10288000C01A5241030A8B4201D30B02C01A5241B3
:10289000CDD2C3098B4201D3CB01C01A5241830967
:1028A0008B4201D38B01C01A524143098B4201D3A1
:1028B0004B01C01A524103098B4201D30B01C01ACC
:1028C0005241C3088B4201D3CB00C01A5241830846
:1028D0008B4201D38B00C01A524143088B4201D373
:1028E0004B00C01A5241411A00D2014652411046D3
:1028F0007047FFE701B5002000F0F0F802BDC046C8
:102900000029F7D076E7704703460B437FD40022B7
:1029100043088B4274D303098B425FD3030A8B4273
:1029200044D3030B8B4228D3030C8B420DD3FF22DD
:10293000090212BA030C8B4202D31212090265D0AB
:10294000030B8B4219D300E0090AC30B8B4201D35E
:10295000CB03C01A5241830B8B4201D38B03C01AA5
:102960005241430B8B4201D34B03C01A5241030B1C
:102970008B4201D30B03C01A5241C30A8B4201D3CD
:10298000CB02C01A5241830A8B4201D38B02C01A78
:102990005241430A8B4201D34B02C01A5241030AEF
:1029A0008B4201D30B02C01A5241CDD2C3098B42D4
:1029B00001D3CB01C01A524183098B4201D38B0151
:1029C000C01A524143098B4201D34B01C01A5241F4
:1029D00003098B4201D30B01C01A5241C3088B4239
:1029E00001D3CB00C01A524183088B4201D38B0024
:1029F000C01A524143088B4201D34B00C01A5241C6
:102A0000411A00D201465241104670475DE0CA0F9C
:102A100000D04942031000D34042534000229C465C
:102A200003098B422DD3030A8B4212D3FC22890166
:102A300012BA030A8B420CD3890192118B4208D33C
:102A4000890192118B4204D389013AD0921100E09E
:102A50008909C3098B4201D3CB01C01A52418309B2
:102A60008B4201D38B01C01A524143098B4201D3DF
:102A70004B01C01A524103098B4201D30B01C01A0A
:102A80005241C3088B4201D3CB00C01A5241830884
:102A90008B4201D38B00C01A5241D9D243088B42DA
:102AA00001D34B00C01A5241411A00D2014663467D
:102AB00052415B10104601D34042002B00D54942E1
:102AC000704763465B1000D3404201B5002000F020
:102AD00005F802BD0029F8D016E770477047C046D8
:102AE000844608006146FFE71FB500F0B5FE0028E8
:102AF00001D40021C8421FBD10B500F03BFE40428A
:102B0000013010BD10B500F0A7FE002801DB002049
:102B100010BD012010BDC04610B500F09DFE00287C
:102B200001DD002010BD012010BDC04610B500F031
:102B300049FE002801DC002010BD012010BDC04668
:102B400010B500F03FFE002801DA002010BD012082
:102B500010BDC046002B15D1002A13D1002906DB79
:102B600001DC002806D00020C043410802E080219B
:102B70000906002007B4024801A14018029003BDD5
:102B80005DFFFFFF03B4684601B5029800F022FB29
:102B9000019B9E4602B00CBC7047C046002B11D171
:102BA000002A0FD1002900D1002802D00021C943FA
:102BB000080007B4024802A14018029003BDC046B5
:102BC0001DFFFFFF03B4684601B5029800F036FA16
:102BD000019B9E4602B00CBC7047C0461C210123DD
:102BE0001B04984201D3000C10391B0A984201D3F0
:102BF000000A08391B09984201D30009043902A2CE
:102C0000105C40187047C046040302020101010134
:102C1000000000000000000010B5002903D1FFF7FC
:102C2000DDFF203002E00800FFF7D8FF10BDC046EE
:102C30000448054B10B5834203D0044B002B00D051
:102C4000984710BD640000106400001000000000F0
:102C500006480749091A8B10C90FC91810B5491041
:102C600003D0044B002B00D0984710BD6400001027
:102C7000640000100000000010B5074C2378002B02
:102C800009D1FFF7D5FF054B002B02D0044800E027
:102C900000BF0123237010BDE800001000000000F9
:102CA000485D0000054B10B5002B03D004490548D2
:102CB00000E000BFFFF7CCFF10BDC04600000000E1
:102CC000EC000010485D0000F0B58DB0FDF7E6FBAC
:102CD0008023994CDB01E26F984D13430122E36797
:102CE000974B1A60FDF70EFC964B974A10211A601D
:102CF0008023E26F5B0413438E22E3679200AB589C
:102D000003208B43AB50FDF753FE01008F48FEF7C5
:102D10001DF8002800D104E18D48FFF7FFF908A84D
:102D2000FDF738FB8023E26F5B008A4E1343E367B5
:102D300005A8FEF73FF905A93000FEF7D7F80223F2
:102D400002AAFF331381ED3B9372834B04A90193D5
:102D5000824B012200933000814B824DFEF70AFA2C
:102D6000042273682021934373608026E36F173237
:102D70003343E3677C48FDF791FFE36F2900B343DA
:102D80008026E367E36FF6003343E367774C08314F
:102D90002000FEF735FB0622A36800209343A360C2
:102DA000FDF706FEE860EB685B002B612360012302
:102DB000A2681343A3606E4B1E60FA216D4B89001D
:102DC0001868FFF717FD802301385B04984200D391
:102DD000A9E0C021684A0906506068480024036AD7
:102DE0001B021B0A0B4303620023936007336448F2
:102DF0001360FFF793F903940A20FDF739FB802352
:102E0000524ADB0491680B43936000214F4808AAA3
:102E1000FEF736F80028F8D0686901F08BF802ABAD
:102E2000061C1820185E574BC01801F083F8EA21E1
:102E3000890500F059FD011C301C00F095FE011CB5
:102E40000290039800F0E4F901F022FF4E4A4F4B44
:102E500001F052FC0600201C0F0001F019FF0200D7
:102E60000B003000390001F0AFF801F059FF48497C
:102E7000041CFFF75BFE002856D14649201CFFF7D3
:102E800041FE002852D10399029800F06DFE01F036
:102E9000FFFEA022404BD20401F02EFC06000F00E2
:102EA00002983E4900F020FD01F0F2FE02000B0006
:102EB0003000390001F088F80600201C0F0001F0F6
:102EC000E7FE02000B003000390001F07DF801F050
:102ED00027FF2F49061CFFF729FE002828D12D497E
:102EE000301CFFF70FFE002824D169692C48FEF73B
:102EF00009FC2C49301C00F0F7FC254900F028FBA8
:102F0000284900F085F9284900F022FB00F07EF8FE
:102F10006B68C2B201210F48FEF758F8029B039379
:102F20006AE72248F9E6FEE7194CACE7194CAAE734
:102F3000174EDAE7174ED8E70480044000800440BB
:102F400094800440C00000108103000000C00140D4
:102F5000585B0000004000506800001080C3C901A9
:102F6000A08601006400001000C000400040004046
:102F700000E100E00000001010E000E000ED00E0E3
:102F80008A5B000001F8FFFF333333333333D33F21
:102F90000000C8410000C8C100001440000070419A
:102FA000A15B00000000164300004040705B000081
:102FB000F0B5CE469946030C9C46130447461B0CBD
:102FC0001D000E0061460404240C80B50700100C9F
:102FD0004B436543414360432C0CC01824188C4676
:102FE000A34203D980235B029846C44449467943EF
:102FF0005643230C2D042D0C8919634424046019B5
:10300000C918C0BCB946B046F0BDC0469E2110B537
:10301000C905041CFFF794FD002803D1201C00F013
:1030200069FF10BD9E21201CC90500F09DFD00F028
:1030300061FF80231B069C466044F2E7F0B55746CB
:103040004E464546DE46E0B504000D0092469946E0
:1030500083B08B4230D82DD049465046FFF7DCFD77
:10306000290006002000FFF7D7FD331A9846203BC1
:1030700034D49B4653465A46934042461F0053461B
:1030800093401E00AF423BD8AF4200D179E05B468F
:10309000A41BBD41002B00DA76E000220023009241
:1030A000019301235A4693400193012342469340E2
:1030B000009329E08242CFD900220023009201939D
:1030C0000C9B002B01D01C605D600098019903B03F
:1030D000F0BCBB46B246A946A046F0BD42469B4660
:1030E00020239B1A5246DA40414613004A468A4042
:1030F000170042461F43534693401E00AF42C3D9B8
:1031000000220023009201934346002BD8D0FB07F6
:1031100072081A4346467B080EE0AB4201D1A24238
:103120000CD8A41A9D41012024196D410021013EB3
:1031300024184D41002E06D0AB42EED9013E241991
:103140006D41002EF8D1009801995B460019694144
:10315000002B24DB2B005A464446D3402A00E24091
:103160001C005B461500002B2ADB26009E40330026
:1031700026004746BE403200801A994100900191D6
:103180009EE7A342BCD882E74246202300219B1A37
:103190000022009101920122DA40019285E7424625
:1031A00020239B1A2A0046469A402300F3404446B7
:1031B00013432A00E2401C005B461500002BD4DAC2
:1031C00042462F002023260097409B1ADE403B00FA
:1031D0003343CDE7F8B5CE46474680B5914698468D
:1031E00004000D0001F022FE07000E0002000B009B
:1031F00048464146FFF7DCFE241A8D41089B380003
:1032000031001C605D60C0BCB946B046F8BDC04628
:10321000F0B5C64643025B0A9C461F00DE004B0227
:103220005A0A450090464A002D0E120EC40F00B5F2
:10323000C90F9B09A81A8C4221D000280DDD002A55
:103240002DD1002B00D195E0421E012800D131E1A3
:10325000FF2800D194E0100027E0002862D0501B26
:10326000002D00D0E1E0002E00D181E0441E0128B5
:1032700000D142E1FF2800D119E12000DAE0002866
:1032800000DC9CE0002A69D0FF2D00D178E080228C
:10329000D20413431B2800DC7DE001362AE0FF2D19
:1032A00000D16DE08022D204134301221B2807DCE9
:1032B0002021091A1A008B40C240591E8B411A4323
:1032C000B61A730100D477E0B601B7093800FFF7EA
:1032D00085FC05388740854200DD82E020223B00E6
:1032E000401B0130121A3E009340C6405A1E9341C3
:1032F00000251E43730704D00F233340042B00D056
:103300000436730137D5681CFE2D52D08E4BC0B2E7
:1033100033409B015F0AC0053843E407204380BC6B
:10332000B846F0BDFE206A1C104274D1002D00D0BA
:10333000AAE0002E00D1DAE00020002BEBD08022A2
:10334000F71AD204174200D1ECE09B1B134200D1C4
:10335000F2E07D4A0C0013400130DAE7002B09D07F
:10336000421E012800D196E0FF2809D0100091E705
:103370000C001E000500F3089C46FF2D00D091E0D4
:103380006346002B15D080276346FF031F437F024F
:10339000FF207F0ABFE72021091A1A008B40C24094
:1033A000591E8B411343F618730105D50135FF2DC6
:1033B00054D1FF200027AEE773079DD1DBE700283B
:1033C00013D0501B002D50D1002ED2D0411E012809
:1033D00040D0FF286CD008001B286EDD15005E1C55
:1033E00088E7594E2D1A3E4084E7FE216A1C11429F
:1033F00041D1002D6CD1002E00D190E00020002B97
:1034000000D188E7F318DF087F027F0A5B0100D450
:1034100081E701207FE7F71A7A0132D4002F00D02C
:1034200054E700240020002775E7FF2A3FD08024BE
:10343000E404264301241B2808DC35001F34241A29
:10344000A640C540741EA6412C0034431E1B150027
:103450000C0036E7F6180235730120D501233B4AEC
:103460003340760816401E4344E7FF2A20D08021CF
:10347000C9040E43B0E7FF2A9BD0F6181500760862
:1034800038E70C009F1B21E7002E3AD1002B4ED0CD
:10349000C4460C0077E7F61802257301DED4F30862
:1034A0009C46012563465F027F0AE8B233E70C00C1
:1034B000C44665E70125F61A03E731002025C1401F
:1034C000281A8640701E86410E431500F6186BE7D9
:1034D000002EEDD0002B00D155E78023DB039C4567
:1034E00000D250E7984500D34DE7C4464BE7002B88
:1034F00097D00C00474600200DE70C009E1B0135BD
:10350000DFE6002B00D13EE78023DB039C4500D2A1
:1035100039E7984500D336E70C00C44633E7474601
:103520000020F8E6002F0BD0BF017F0AF3E68027CA
:103530000024FF20FF03EEE69B010C005F0AEAE691
:1035400000240027E7E6C046FFFFFFFBFFFFFF7DEB
:10355000F0B546464F46D6464502C0B5C30F4700B4
:1035600098460E1C6D0A3F0E57D0FF2F21D08023A6
:10357000ED00DB041D43002399469A467F3F740209
:103580007300640A1B0EF60F002B20D0FF2B4CD0CB
:1035900080220020E400D20414437F3B4246FF1AFD
:1035A0004B4672400F2B00D9ACE06F499B00CB58C3
:1035B0009F46002D5BD108239946063B74029A462C
:1035C0007300FF27640A1B0EF60F002BDED1002CC0
:1035D00030D1012342464946724019430E2904D88E
:1035E0006248890041588F464246FF200024C005AA
:1035F0002043D2071043E0BCBA46B146A846F0BD0E
:103600005346022BF0D0032B00D1A3E042462C00FE
:10361000012B35D100200024E9E7002D1BD1042324
:103620009946033B00279A46A9E7002C0CD10223B8
:10363000FF3FCFE72000FFF7D1FA431F9C407623DE
:103640005B421B1A0020A9E703234A461A4391460E
:103650000320FC33A2E72800FFF7C0FA7627431FB8
:103660009D4000237F4299469A463F1A87E70C23E4
:103670009946093BFF279A4681E703286CD0320020
:1036800038007F30002825DD630704D00F23234056
:10369000042B00D00434230103D53800344B803090
:1036A0001C40FE28A1DCA401640AC0B29FE780246C
:1036B0000022FF20E4039AE78023DB031D4201D0B0
:1036C0001C424BD08024E4032C4364024246FF207A
:1036D000640A8CE701231B1A1B2B9BDC21009E37FD
:1036E000D940BC400B00611E8C412343590704D0D4
:1036F0000F211940042900D00433590126D5012097
:10370000002474E76D016001854213D21B2300245D
:10371000013F0126290064006D00002901DBA84259
:1037200001D82D1A3443013B002BF3D16B1E9D4170
:103730002C43A5E71A2301242D1AEAE7981E4342D9
:103740005841404232000024C0B250E79B010020A3
:103750005C0A4CE746462C008023DB031C436402D2
:103760003200FF20640A42E7A45B0000E45B000033
:10377000FFFFFFF770B542004E024C0045026D0A94
:10378000120EC30F760A240EC90FFF2A10D0FF2C89
:103790000CD00120A2420AD1B54208D18B420FD0F1
:1037A000002A04D12800431E984100E0012070BD8A
:1037B0000120FF2CFBD13543F9D14B401800F6E72F
:1037C0000020F4E730B5420044024D02C30F480028
:1037D000640A120E6D0A000EC90FFF2A17D0FF28C7
:1037E0000AD0002A1BD100280AD1002D24D0002C99
:1037F0002ED14800013830BD002D26D1002A01D13C
:10380000002CF6D08B4206D158000138F3E7002C8B
:103810001BD1FF2813D001205B421843EBE700289F
:10382000F9D08B42F7D18242F5DCEDDBAC42F2D825
:103830000020AC42DFD2E7E7002CDCD0EBE7002D24
:1038400003D18B42E7D10020D5E702204042D2E7E6
:103850008B42EBD0DFE7C04630B5420044024D0258
:10386000C30F4800640A120E6D0A000EC90FFF2A2A
:1038700018D0FF280DD0002A1CD100280DD1002D12
:1038800027D0002C0BD08B421BD001205B42184369
:103890000FE0002D0CD1002A1ED1002C1CD14800B5
:1038A000013806E0002C03D1FF28EED1002D16D000
:1038B000022030BD0028E8D08B42E6D18242E4DC11
:1038C00004DBAC42E1D80020AC42F2D2580001380F
:1038D000EFE7002CEDD0D8E78B42D6D1F6E70020F9
:1038E0008B42E6D0D1E7C046F0B54F464646D646B5
:1038F0004502C0B546000F1C6D0A360EC40F002EDF
:1039000000D1C3E0FF2E77D08023ED00DB041D4300
:10391000002399469A467F3E7B025B0A98467B00CD
:103920001B0EFF0F002B77D0FF2B00D194E04246F7
:103930008021D200C9041143884600217F3BF6183C
:103940004B46721C0A2B73DC4B467C40022B00DC7E
:10395000A7E0484601238340A620C000034267D168
:1039600090208000034200D0ECE0B938FF381842C4
:1039700000D0DAE041460904090C43460F00280C48
:103980002D041B0C2D0C6F4341435D4358436D18B0
:103990003B0C5B19994203D9802149028C46604453
:1039A0003F0419043F0CC9198D016F1EBD411B0C4A
:1039B000890E1B180D439B011D431B0100D4C6E05B
:1039C000012369081D400D4310007F30002800DCF2
:1039D00094E06B0704D00F232B40042B00D0043558
:1039E0002B0103D5803210005E4B1D40FE2855DCB4
:1039F000AB015B0AC0B226E0002D00D078E00823BE
:103A00009946063B9A467B025B0A98467B00FF2656
:103A10001B0EFF0F002B87D14346002B56D14A4681
:103A200001331A4391464B460121721C0A2B8BDD50
:103A30005346022B32D0032B00D17CE05346012B9E
:103A4000C2D100200023C0051843E4072043E0BC96
:103A5000BA46B146A846F0BD33004246FF33002ABD
:103A60003FD0032249461143721C8946FF320A297E
:103A700073DD0F295DD18023DB031D425BD04246FD
:103A80001A4258D13C00FF201343DCE7002D11D12E
:103A900004239946033B00269A463DE7FF20002376
:103AA000D1E7013B012B00D964E70229F6D0454656
:103AB0008A46C3E72800FFF791F87626431F9D400A
:103AC0000023764299469A46361A25E74046FFF784
:103AD00085F84246431F9A40361A90460021763EAA
:103AE0002EE749460232114389461E00022127E78C
:103AF0000C239946093BFF269A460DE701231B1A22
:103B00001B2B9EDC9E3229009540D9406A1E9541B0
:103B10000D436B0704D00F232B40042B00D004353A
:103B20006B0116D5012000238DE73C0045468A46EF
:103B30007EE73C0045468023DB032B435B02FF20EE
:103B40005B0A80E780230024FF20DB037BE7320051
:103B50003AE7AB0100205B0A75E71E0003217C40B9
:103B6000F7E6C046FFFFFFF7F0B546464F46D6469C
:103B700043025B0AC0B59C461F00DE004B025A0A96
:103B8000904645004A002D0EC40F120EC90F9B0926
:103B9000FF2A26D001204140A81A8C4210D00028CC
:103BA00000DC8AE1002A48D1002B00D1AEE0421EA1
:103BB000012800D13FE1FF2800D1ADE0100041E035
:103BC000002800DC86E1002A00D182E0FF2D00D130
:103BD000A2E08022D20413431B2800DC83E00136DC
:103BE00054E02800FF388246002B69D10120414073
:103BF0008C4200D1D8E05046002800D19AE00C0059
:103C0000002D00D07DE0FF20002E00D17CE0471E7B
:103C1000012800D12CE10C00FF2800D109E101218D
:103C20001B2F07DC2020C01B31008640F940701E8E
:103C30008641314315005E1A10E0FF2D6CD08022C2
:103C4000D204134301221B2807DC2021091A1A0081
:103C50008B40C240591E8B411A43B61A730166D578
:103C6000B601B7093800FEF7B9FF0538874085422D
:103C700000DD7AE020223B00401B0130121A3E009A
:103C80009340C6405A1E934100251E43730704D03B
:103C90000F233340042B00D00436730137D5681C42
:103CA000FE2D2ED0914BC0B233409B015F0AC00560
:103CB0003843E4072043E0BCBA46B146A846F0BD0D
:103CC0008C4260D0002835D0002D9CD00C00C4461A
:103CD00022E0002B1AD0421E012800D19DE0FF28CF
:103CE0001AD0100078E72021091A1A008B40C24030
:103CF000591E8B411343F618730118D50135FF2D5A
:103D00006AD1FF200027D2E70C001E000500F3084F
:103D10009C46FF2D00D087E06346002BF1D0802722
:103D20006346FF031F437F02FF207F0ABFE773073D
:103D3000AED1ECE7FE206A1C10421AD1002D63D1EF
:103D4000002E00D198E00020002BB0D08022F71A7E
:103D5000D204174200D1A8E001249B1B0C4013425F
:103D6000A3D0624A013013409FE7604E2D1A3E40B7
:103D70008CE7F71A7A0143D4002F00D072E70024B1
:103D80000020002793E7002811D0002D51D1FF20FB
:103D9000002EBAD0411E01283FD0FF2849D01B2950
:103DA0004CDD15005E1C71E7514600291BD1FE2138
:103DB0006A1C11421ED1002D4BD1002E72D0002062
:103DC000002B00D173E7F318DF087F027F0A5B0145
:103DD00000D46CE701206AE70123454A33407608A6
:103DE00016401E4352E7002DD1D08AE7FE216A1CFF
:103DF0000A42E2D0FF2A84D0F6181500760845E77B
:103E000001249F1B0C402DE7002E3CD1002B45D1F7
:103E100080270024FF20FF0349E7F61802257301DD
:103E2000DAD4F3089C46012563465F027F0AE8B2B4
:103E30003DE7C44670E70125F61A0FE7300020255C
:103E4000C840691A8E40711E8E4106431500F6184F
:103E500052E7002EEDD0002B00D160E78023DB037A
:103E60009C4500D25BE7984500D358E7C44656E727
:103E70000C0001259E1BF1E6002B80D00124474653
:103E800000200C4013E7002B00D148E78023DB0320
:103E90009C4500D243E7984500D340E70124C4463F
:103EA0000C403CE74746002001E7002F02D0BF014D
:103EB0007F0AFCE600240027F9E6002800D139E754
:103EC000571B3800002D00D19EE68020C0040C0056
:103ED0000643A4E6002889D0511B002D01D108001B
:103EE00056E78020C004064359E7C046FFFFFFFBAA
:103EF000FFFFFF7D41024200C30F490A0020120E5E
:103F00007E2A03DD9D2A02DD094A98187047802029
:103F100000040143952A07DC9620821AD1404842CA
:103F2000002BF3D10800F1E7963A9140F7E7C0463D
:103F3000FFFFFF7F70B5002813D0C317C5185D4081
:103F4000C40F2800FEF74AFE9E2301001B1A962B81
:103F50000FDC082831D008398D406D026D0AD8B2C7
:103F600002E0002400200025C0052843E407204388
:103F700070BD992B15DC421F95402A001500114891
:103F80000540560709D00F263240042A05D00435D3
:103F90006A0102D59F2305405B1AAD016D0AD8B2B4
:103FA000E2E70522121A2800D0400A001B32954091
:103FB0002A00551EAA410243E0E76D0296206D0AD1
:103FC000D2E7C046FFFFFFFBF0B557464E46DE4640
:103FD0004546E0B50C0383B04E00640A470FCD0F91
:103FE00059000092019327431C034B0D9A46009AF7
:103FF000019B640AD90F530F23439B46009B760D08
:10400000DA0094465246B21A9146C0008D4200D161
:10401000C1E0002A00DC86E05246002A00D105E11A
:10402000BF4A964200D1ADE14A460124382A19DC44
:1040300080225B46120413439B464A461F2A00DD3A
:104040000BE24B4620225C466146D21A9440D9408E
:104050000C43614691400A00511E8A4114435A465E
:10406000DA40BF1A041BA042804140423B1A9846E6
:1040700043461B0200D44DE143465B025B0A98466F
:104080004346002B00D127E14046FEF7A7FD030081
:10409000083B202227004146D01A9940C7409C4047
:1040A0000F439E4200DDD3E1991B23000131521AD8
:1040B000CB4094409846631E9C413B00934042464F
:1040C000CF4022431400B84600261C43630709D0A2
:1040D0000F232340042B05D0231DA342A441644297
:1040E000A0441C0043461B0200D4CAE28C4A01369D
:1040F000964200D1ECE043468A480340180073051D
:104100005B0DE408420722434402240B1B052343B2
:10411000ED072B431000190003B0F0BCBB46B246BC
:10412000A946A046F0BD002A00D194E05246921B59
:104130009146002E00D07EE13A00024300D1D7E143
:104140004B465A1E012B00D152E2754CA14500D1BD
:1041500015E20124382A13DC91464B461F2B00DD63
:1041600016E220220500D21A3C00DD40DF409040DC
:104170005B469440DB1B421E90419B462C4304430C
:104180006246141BA44592415B4652429B1A9846D4
:104190000D0056466CE7002A00DCC7E05246002AB4
:1041A00000D088E062465B461A4300D1FAE04B46F5
:1041B0005A1E012B00D1AFE15949894500D1E1E0F8
:1041C0000124382A17DC91464B461F2B00DDBFE146
:1041D0002022D21A5B46934061461C004B46D940D0
:1041E000634693401A000C43511E8A414B461443C8
:1041F0005A46DA40BF182418844280414042804623
:10420000B84443461B0200D484E0454B01369E422D
:104210005ED04246434B01211A4013002140620800
:104220000A43DC075B08984614434FE762465B4647
:104230001A4300D1B6E04A464946013A012900D165
:104240007BE13749894500D19CE00124382A00DD13
:1042500008E79146F1E6344C721C224200D0D3E0CC
:104260003C0062465B4604431A43002E00D044E102
:10427000002C00D1CAE1002A00D17DE16346C61AB4
:10428000B04292415B465242FC1AA41A80221204A8
:10429000144200D112E263461C1A5B46D81BA445A7
:1042A0009B415B42C01A104200D11DE21D4B0D0024
:1042B0001840012325E71A4A964263D04A46012452
:1042C000382A98DC80225B46120413439B467BE726
:1042D00033000024002219E72000FEF77FFC0300D2
:1042E00018331F2B00DCD4E60838844027009E4298
:1042F00000DDC4E09B1B591C1F2900DCCCE11F3BE7
:10430000DC40202905D040235B1A9F407B1E9F4143
:104310003C430026630700D0DAE6B1460AE1C04616
:10432000FF070000FFFF7FFFFE070000002A46D0C6
:104330005246921B9146002E00D1A9E0D34A9245E5
:1043400000D121E14B460124382B13DC80221204DA
:1043500017434B461F2B00DD84E120223C00D21A7C
:10436000010090409440D940421E9041DF400C43F0
:104370000443BB44644464459241524290465646CD
:10438000D8443EE7C0087A070243FF083B001343C6
:10439000002B00D1A4E1802424033C432403BB4B25
:1043A000240BB3E6C008B94B7A070243FF089945CE
:1043B000ECD04B463C035B05240B5B0DA6E6B44AF0
:1043C000711C114276D13A000243002E00D0EEE07B
:1043D000002A00D141E162465B461A4300D1CBE09E
:1043E0006346C218824280413B0040425B441C1835
:1043F000D308220200D46DE1A64A14406207640289
:104400001A43240B012381E66246841AA04292419A
:104410005B4652429146FB1A1A004B46D21A1300D1
:1044200090461A0259D44246224300D028E600257D
:10443000002300246AE6954A924500D19FE04B464E
:104440000124382B00DD9BE680221204174384E60A
:10445000F61A904B1F40B84638E659464B46203A6C
:10446000D140202B06D04022D21A5B4693406246B0
:104470001A4394466446631E9C410C43F2E5F31ACA
:104480009946844B1F4043467A071A43FF0890E73A
:104490003A00024300D1C6E04B465A1E012B00D120
:1044A00002E17A4989456FD00124382A00DD61E7AD
:1044B00091464EE7754A914200D1F1E06346C21839
:1044C000824280413B0040425B441B18DC0752089B
:1044D0005B0898460E001443F8E563461C1AA44591
:1044E00092415B465242DB1B9B1A98460D00C7E582
:1044F00063460D005F46D80855E7002C00D096E0D3
:10450000002A00D1E2E06246DF08D2085B071A43C6
:104510003B000D0013433BE76346C4183B00844255
:1045200080415B4498464042804443461B026BD422
:10453000012399464746E00835E76346C41AA0427E
:1045400080415B464042FB1A1B1A984601268FE5C4
:104550004A465B46203AD34019004B46202B06D0F2
:104560004022D21A5B46934062461A439446644600
:10457000631E9C410C433EE6C308984683E76346AE
:104580000D005F46D808FEE663465F46D808FAE6A7
:104590004A463D00203AD540202B03D04022D21A73
:1045A00097403843421E904104002C43E8E5002A1E
:1045B000EAD062465B461A4300D1E3E68022FE0859
:1045C000C0087F0712033843164208D0D9081142A9
:1045D00005D16346D8085B460E005B0718433300DD
:1045E000420FC0005207C008024337001343CFE612
:1045F00063461C1AA44592415B465242DB1B9B1A40
:1046000098460D00012633E5022602E6002A00D175
:104610000DE76346D8085B465A075B021C0B0D008A
:104620000023024372E563465F46D808BBE6002AD2
:1046300000D1A7E68022FE08C0087F071203384396
:104640001642CCD0DC081442C9D16346D8085B4678
:104650005B070D0026001843C1E76346DB08984658
:104660005F4610E74A463900203AD140202B03D05C
:104670004022D21A97403843421E904104000C4316
:1046800078E6B1464746E0088DE6C046FF070000E1
:10469000FE070000FFFF7FFF20220024521A0CE5D6
:1046A0000B000024002231E53B006044604592414C
:1046B0005B44984652420400904436E7320022435D
:1046C00000D1B4E6F30898462700DCE680270025F1
:1046D0003F0360E6620764021A43240B002315E5DA
:1046E00000220024034B11E54207E4080D00224399
:1046F000C7085EE6FF070000F0B557464E46DE46A7
:104700004546E0B589B0009201930B031B0B9A4616
:10471000CA0F4B00040091465B0D00D1BCE1D84AA2
:10472000934200D14AE15146420FC9000A43802119
:1047300009041143C2009046D24A8A469C180023BD
:1047400000250393009E019F3B031B0B9B46FA0F22
:104750007B0030005B0D049200D16FE1C84A9342A8
:1047600000D153E15946720FC9000A438021090460
:104770001143C44A8B46944600216344F0001B1940
:104780005C1C0A2D00DD26E14E46049A5640F2B22A
:104790000092022D00DCA8E10122AA40A627150004
:1047A000FF003A403D4200D013E19027BF003D4258
:1047B00000D016E288222A4200D0EFE1414642466C
:1047C0000904090C0D00170C020C0004000C4543F1
:1047D000AC46050016007D43A8460D007E430392BB
:1047E00004963200039E75436646360CB146454436
:1047F0004D44A84505D916008022520290464644F1
:1048000004962E0C059666463604360CB4462D04E6
:10481000654406955D462D0CA9465D460E002D04A7
:104820002D0C6E43B4462E007E43B3464E46714374
:10483000594488466146090C414477438B4503D966
:1048400080225202904647440E0CB0463E00464439
:10485000079666463704059E3F0CB4460904C919FD
:104860008C44664605965646360CB4465646370482
:104870003F0C3E004643B04666464643B246464677
:104880006046360CB346039A50437A4352445A4426
:10489000924503D980267602B2465044160CB246A1
:1048A00082444046120490460004000C3A004E46F2
:1048B000804460466A437743454370438446781991
:1048C000170C3F18BD4203D9802040028146CC44DA
:1048D000059D0498A946079E484488428941B146EF
:1048E00012043D04120CAA184A4449425518404487
:1048F000A9464045AD41C8466D42AB46B2429241E1
:1049000089458941D044C344494252420A43AB4598
:10491000AD41D04589416D4249420D4359463F0C56
:10492000D219521962445202C90D069D11438A469A
:10493000410229434D1EA941C00D08435946490271
:1049400008438046D20100D473E1012243080240AB
:1049500013435246D2071343984653465B089A4680
:10496000009B9946484BE318002B00DCE5E04246EB
:1049700052070AD00F2241460A40042A05D00431CA
:10498000414592418846524292445246D20106D550
:1049900052463E4B1A4080239246DB00E3183C4AC5
:1049A000934200DD9DE04246D108524652070A4339
:1049B00051465B054C02240B5B0D19E05246024345
:1049C000904600D0B3E01C000223924608250393D2
:1049D000B8E6009B9946039B022B00D181E0032B94
:1049E00000D1F5E0039B012BBCD100230024002261
:1049F00010004A461B052343D2071343190009B090
:104A0000F0BCBB46B246A946A046F0BD5B46009E40
:104A10001E431B4BE318002E00D181E003224E46BB
:104A20001543049A5640F2B2009280221201944635
:104A300064440A2D00DDB7E00321ADE65B46009A31
:104A4000134365D05B46002B00D1E2E05846FEF7E9
:104A5000C5F8020003000B3A1D27009EBA1A190080
:104A60005846D640083988403200024300989346A1
:104A70008840084AE31A94460021634480E6C04611
:104A8000FF07000001FCFFFFFF030000FFFFFFFE28
:104A9000FE0700000DFCFFFF53460343984630D04D
:104AA0005346002B00D1A2E05046FEF797F80B23A7
:104AB0005B429C460200844466461D239B1B2600E5
:104AC00011005046DE4008398840330003439A46BF
:104AD00023008B4098460023694C0025A41A0393B9
:104AE00030E600240022674B82E7013D012D00D90A
:104AF00064E6009B99460229F3D0DA46804603918A
:104B000070E700239A46013304250024039319E635
:104B1000002201331D4393462300002001212FE68C
:104B200002221543002200209346022128E61C00A1
:104B3000032380460C25039304E60121C91A382972
:104B400000DD52E71F2978DD1F225242D31A524658
:104B5000DA401300202907D04B4A4146944652467A
:104B60006444A240114388464246511E8A411A437A
:104B7000072319000024114013420BD00F231340C8
:104B8000042B7BD0131D9342A4411A006442610799
:104B90006402240BD20800230A4329E7049BDA4667
:104BA00099468046039116E70F2D0DD18024534678
:104BB000240323420CD05B46234209D11C43049BAF
:104BC000020099462F4B13E7049BDA46994680462C
:104BD0008024534624031C4324034246294B240BC0
:104BE00006E70023802499462403264B00E7FDF7BF
:104BF000F5FF15239C4684440200634620321C2B9B
:104C000000DC59E7002398462300083883409A4681
:104C100061E7FDF7E3FF02000300153220331C2A91
:104C200000DC19E702000099083A914000208B4609
:104C30001FE7009A1C00914694E6144B52469C468E
:104C400043466444A240CB401A434346A340581E07
:104C5000834154461A43CC40530709D00F231340D5
:104C6000042B05D0131D934292415242A4181A00FE
:104C700023028CD5012300240022B9E6002486E714
:104C80000DFCFFFFFF0700003E0400001E040000B3
:104C900070B542024300C40FFE201B0E591C550A7A
:104CA00008420CD0E02189008C466D07120B63444A
:104CB0001B051343E40723432800190070BD002B94
:104CC00014D1002D1BD02800FDF788FF0A281CDC1A
:104CD0000B232A001B1ADA40030015339D400E4BAC
:104CE00012031B1A5B05120B5B0DE1E7002D09D0C7
:104CF000130B802212031A436D07084BD8E70023D9
:104D00000022D5E70022054BD2E703002A000B3B27
:104D10009A400025E3E7C04689030000FF07000032
:104D2000F0B54B000F035B0D3C4C450F83B07F0A81
:104D30005E1C2F4300900191CA0FC50026420BD084
:104D400037495C18FE2C13DDFF200023C0051843F3
:104D5000D207104303B0F0BD3D43002B01D100202A
:104D6000F4E7002DF0D08023DB03FF203B43EDE789
:104D7000002C14DD009BFF009B01581E8341690F2E
:104D80003B430B43590746D00F21194004292AD031
:104D90000433590127D501340023E0B2D6E72100BE
:104DA000173124DB80211E2009043943001B1F28F2
:104DB00020DD02267642341B0E00E6403400202817
:104DC00004D018488446634499400D432B00591E73
:104DD0008B41234359071AD00F210024194004297D
:104DE00001D0002404339B015B0AE0B2AEE700204F
:104DF0000023ABE70C4C1C192B00A540C340A1407D
:104E0000681E854129430B4300245907BCD19B01EF
:104E100000205B0A9AE7DB08E0B297E7FE07000094
:104E200080FCFFFFA2FCFFFF82FCFFFFF0B5D6462F
:104E30004F464646C0B504000D001000190082B070
:104E4000002D00DA87E0002B0BDB16001F00AB42C1
:104E500019D90020002102B0E0BCBA46B146A846EC
:104E6000F0BD002746428F41AF4204D800D082E017
:104E7000A64200D87FE0002000218FE000274642B4
:104E80008F419F42E5D8AF4200D198E00023994678
:104E900039003000FDF7C0FE804629002000FDF7F4
:104EA000BBFE43461B1A9846203B00D57CE03100F0
:104EB00099409A460B003100404681400A00AB42BF
:104EC0005FD85CD05146A41A9D41002900DA93E0D6
:104ED0000021002001260090019151468E4001964C
:104EE000414601268E4041460096002950D0D90700
:104EF00056080E435F084146012200230CE0AF42F2
:104F000001D1A6420AD8A41BBD4124196D41013923
:104F1000A4185D41002906D0AF42F0D90139241907
:104F20006D410029F8D10098019953460019694153
:104F3000002B48DB2E002C00DE404346DC4053466D
:104F4000002B50DB34009C4023004446A640320036
:104F5000801A99411EE000236242AB4114001D00FB
:104F600000298BDB06000F00994200D971E702D1BE
:104F7000904200D96DE701235B42994688E7A14240
:104F8000A0D9002100200090019141460029AED116
:104F9000009801994B46002B00D15CE703000C0000
:104FA00000215842A14156E7424638009A46202344
:104FB000310090409B1AD94003000B437BE7A64287
:104FC00000D863E745E7424620239B1A2A009A400F
:104FD000260013004246D6402C001E434346DC40C8
:104FE0005346002BAEDA42462023350094409B1AEC
:104FF000DD4023002B43A8E7414620260127761AEF
:1050000000200021F74000900191019768E7C04619
:10501000074B10B50400002B02D0002100E000BFB8
:10502000044B1B68002B00D09847200000F04CFD7B
:10503000000000004402001010B5034B0100186886
:1050400000F030F810BDC0461400001010B5034B3E
:105050000100186800F0F6FB10BDC04614000010F7
:1050600070B50F4E0D0031680400002902D100F028
:1050700083FB30602900200000F07EFB431C03D13D
:1050800001256D42280070BD0323C51C9D43A84225
:10509000F8D0291A200000F06FFB0130F2D1EFE7C1
:1050A00004010010F7B50322CB1C9343083305001D
:1050B0001F000C2B34D20C27B94233D8280000F043
:1050C00071F8374E33681C00002C2FD139002800AE
:1050D000FFF7C6FF0400431C5FD134680094009BB7
:1050E000002B4AD1002C52D023682800E3180099E5
:1050F000019300F041FB019B834248D123682800C3
:10510000FF1A3900FFF7ACFF013040D02368DB19EC
:10511000236033685A68002A33D1009B336019E05A
:10512000002BC9DA0C232B600020FEBD2168C91BAF
:1051300020D40B290AD9E2192760A34204D1326096
:1051400063681160536005E05A60F9E76268A34242
:105150000ED13260280000F02DF8200007220B301D
:10516000231D9043C21A9842DFD01B1AA350DCE7DC
:105170005A60EFE723006468A6E7009C6368009329
:10518000ADE71A005B68A342FBD10023DAE70C23EA
:1051900028002B6000F00EF8C6E70760DAE7C0468B
:1051A0000801001010B5024800F03BFB10BDC046DE
:1051B0005002001010B5024800F039FB10BDC04687
:1051C00050020010F0B51E003E4B17000C009C462C
:1051D000082285B003900091230061461D780134B8
:1051E000485D010011401042F6D12D2D12D12578D5
:1051F0009C1C0123029310223300934316D1302DBF
:105200000ED1202123788B43582B09D165780234A5
:1052100010260BE002912B2DEDD125789C1CEAE79E
:10522000002EF5D10A36302D00D1023E012031008A
:105230004042FDF7DFFA0190012031004042FDF7C6
:105240005FFB00230122180094462A00303A092A05
:1052500012D81500AE421EDD5A1C0AD00123019A55
:105260005B42824205D301D1A94211DB6346704300
:10527000281825780134E8E72A00413A192A01D88C
:10528000373DE7E72A00613A192A04D8573DE1E79C
:1052900001235B42EDE75A1C07D122220399180033
:1052A0000A60002F09D105B0F0BD029A002A00D093
:1052B0004042002FF7D0002B01D0631E0093009BCB
:1052C0003B60F0E7215C000010B5FFF77BFF10BDED
:1052D00010B5044C13000A0001002068FFF772FFAC
:1052E00010BDC0461400001010B5044C13000A0095
:1052F00001002068FFF766FF10BDC04614000010D3
:10530000002310B50400036043608360818143661D
:10531000C281036143618361190008225C3000F09F
:1053200089F90B4B246263620A4BA3620A4BE36266
:105330000A4B23630A4B9C4205D00A4B9C4202D085
:10534000094B9C4203D12000583000F066FA10BD92
:1053500099550000C5550000FD5500002956000074
:105360000C01001074010010DC01001010B5034A9C
:105370000349044800F0F4F810BDC04608000010CE
:10538000E55900001800001041680B4B10B50400EF
:10539000994201D000F026FBA168084B994202D047
:1053A000200000F01FFBE168054B994202D020006D
:1053B00000F018FB10BDC0460C0100107401001075
:1053C000DC0100104B6E10B5DB0705D48B899B0503
:1053D00002D4886D00F025FA002010BD4B6E10B588
:1053E000DB0705D48B899B0502D4886D00F01FFA7A
:1053F000002010BD10B5094B094A04211A60094864
:105400000022FFF77DFF012209210748FFF778FFFF
:10541000022212210548FFF773FF10BD440200105D
:105420006D5300000C01001074010010DC0100102D
:1054300010B5024800F0F5F910BDC0465302001047
:1054400010B5024800F0F3F910BDC0465302001039
:10545000F8B50700FFF7ECFF244B1B68002B01D1C8
:10546000FFF7C8FF224EB4687368013B0FD535685B
:10547000002D38D1D62138004900FFF713FE041E55
:1054800026D13060FFF7DCFF0C233B601CE00C22D0
:10549000A55E002D1AD12000164B5830E3606566DA
:1054A00000F0BBF9FFF7CCFF20000822290025609F
:1054B000A560656025616561A5615C3000F0BAF8A2
:1054C0006563A563A564E5642000F8BD6834CCE796
:1054D0000423D022056043600C302900A0605200F4
:1054E00000F0A8F834603668BDE7C04644020010FA
:1054F000080000100100FFFF10B50400FFF798FF3F
:10550000236A002B02D0FFF79BFF10BD044B2362E0
:10551000044B1B68002BF6D1FFF76CFFF3E7C04686
:10552000895300004402001010B5FFF781FF0020EE
:10553000024A034900F014F810BDC04608000010EC
:10554000C553000010B5044A0449002000F008F8D3
:10555000FFF776FF10BDC04608000010DD530000C5
:10556000F7B51400002600900191A5686768013F17
:1055700004D52468002CF8D13000FEBDAB89012B86
:1055800008D90E22AB5E013304D029000098019B9C
:10559000984706436835EAE770B50C000E25495F69
:1055A00000F0D6F8002803DB636D1B18636570BD3F
:1055B000A389024A1340A381F9E7C046FFEFFFFF2A
:1055C00000207047F8B51F008B8905000C001600FD
:1055D000DB0505D50E23C95E0022022300F0A4F8E6
:1055E000A389054A28001340A38132000E23E15EFF
:1055F0003B0000F0D3F8F8BDFFEFFFFF70B50C00E3
:105600000E25495F00F090F8A389421C03D1054A9A
:105610001340A38170BD802252011343A3816065B2
:10562000F8E7C046FFEFFFFF10B50E23C95E00F09C
:1056300009F810BD03008218934200D17047197019
:105640000133F9E7002370B5064D040008002B6014
:1056500000F00CFA431C03D12B68002B00D0236010
:1056600070BDC046480200102E4B70B51B68040088
:1056700083424FD0C369002B17D0DB68002B0DD0BD
:105680000025E369DB685959002944D10435802D90
:10569000F7D1E3692000D96800F0D4F8E36919680C
:1056A000002902D0200000F0CDF86169002902D065
:1056B000200000F0C7F8E169002902D0200000F0C6
:1056C000C1F8216B002902D0200000F0BBF8616B0B
:1056D000002902D0200000F0B5F8A16B002902D00B
:1056E000200000F0AFF8A16C002902D0200000F0EB
:1056F000A9F8616C002902D0200000F0A3F8E16A4B
:10570000002902D0200000F09DF8236A002B01D070
:105710002000984770BD0E68200000F093F831001B
:10572000B2E7C0461400001070B504000800110074
:105730001A000023054D2B6000F0A0F9431C03D193
:105740002B68002B00D0236070BDC04648020010BB
:1057500070B50400080011001A000023054D2B60ED
:1057600000F094F9431C03D12B68002B00D0236078
:1057700070BDC04648020010002370B5064D0400FD
:1057800008002B6000F08AF9431C03D12B68002B22
:1057900000D0236070BDC0464802001070B5040000
:1057A000080011001A000023054D2B6000F084F959
:1057B000431C03D12B68002B00D0236070BDC04672
:1057C00048020010014B18687047C04614000010D2
:1057D00070B500260C4C0D4D641BA410A64209D1D7
:1057E000002600F0B3FA0A4C0A4D641BA410A6422E
:1057F00005D170BDB300EB5898470136EEE7B30012
:10580000EB5898470136F2E76C5D00006C5D0000D4
:10581000705D00006C5D0000704770477047704716
:1058200070477047012070470120704770477047EC
:10583000002310B59A4200D110BDCC5CC454013392
:10584000F8E7000070B505000C1E10D0043C23687A
:10585000002B00DAE4182800FFF7A4FC1D4A1368A7
:10586000002B05D1636014602800FFF7A3FC70BD16
:10587000A34208D9206821188B42F3D119685B68CC
:1058800009182160EEE71A005B68002B01D0A342E3
:10589000F9D911685018A0420BD120680918501886
:1058A00011608342E0D118685B6841181160536051
:1058B000DAE7A04202D90C232B60D5E72068211833
:1058C0008B4203D119685B680918216063605460DA
:1058D000CAE7C04608010010F7B50C228B5E050030
:1058E0000C001A0756D44A68002A02DC0A6C002A07
:1058F0004EDDE76A002F4BD0002280202E682A6000
:105900001A004001216A0240034233D0626DA3892C
:105910005B0706D56368D21A636B002B01D0236C3A
:10592000D21A00232800E76A216AB847A289431CDB
:1059300006D129681D2946D8294BCB40DB0742D523
:105940000023636023692360D20405D5431C02D180
:105950002B68002B00D16065616B2E60002917D089
:1059600023004433994202D02800FFF76BFF002345
:1059700063630DE001232800B8470200431CC6D131
:105980002B68002BC3D01D2B01D0162B1AD12E60F3
:1059900000201EE00E69002EFAD00F680E60BA1BC0
:1059A000019200229B0700D14A69A260019B002B53
:1059B000EEDDA36A32001F002800019B216AB84770
:1059C000002807DCA2894023012013431BB2A381D6
:1059D0004042FEBD019B36181B1A0193E6E7C04604
:1059E000010040200B6970B505000C00002B02D1AE
:1059F0000025280070BD002804D0036A002B01D1C7
:105A0000FFF77AFD0C22A35E002BF1D0626ED20765
:105A100004D49B0502D4A06DFFF703FF28002100EA
:105A2000FFF75AFF636E0500DB07E2D4A3899B05ED
:105A3000DFD4A06DFFF7FBFEDBE70000010010B52F
:105A4000002805D1054A06490648FFF789FD10BD23
:105A5000054B1868FFF7C6FFF9E7C04608000010BD
:105A6000E559000018000010140000105822012011
:105A7000014B40421A607047480200105822012032
:105A8000014B40421A607047480200105822012022
:105A9000014B40421A60704748020010044A03005C
:105AA0001068002802D0C318136070470148FAE755
:105AB000540200105802001058220120014B4042AD
:105AC0001A60704748020010FEE7C0460000000060
:105AD000C027090090051000C05C1500F0B31A0043
:105AE000200B2000009F2400E0322900C0C62D00BA
:105AF00050973100E06735007038390000093D00EB
:105B00004016400080234300C03046000E0F1003B3
:105B10000405030405000000004006400080064024
:105B200000C00640020A0A0A0A0A0A0A0A0A0A0AFF
:105B30000A0810003E410C41114127413641034102
:105B4000064115410F410E412641134129410241B1
:105B500019410A410B4100004144432043616C69F3
:105B600062726174696F6E20446F6E652E0D0A005B
:105B70004144432043616C6962726174696F6E20B5
:105B80004661696C65642E0D0A00436F6E66696735
:105B900075726174696F6E20446F6E652E0D0A0A0E
:105BA0000025640004370000EA35000014360000C8
:105BB0007A36000014360000AE36000014360000BD
:105BC0007A360000EA350000EA350000AE36000003
:105BD0007A36000000360000003600000036000073
:105BE000B8360000EA350000EA350000143600003F
:105BF0003C37000014360000AE36000014360000BA
:105C00003C370000EA350000EA350000AE360000FF
:105C10003C3700000036000000360000003600006F
:105C2000002020202020202020202828282828206C
:105C30002020202020202020202020202020202064
:105C400020881010101010101010101010101010CC
:105C500010040404040404040404041010101010BC
:105C60001010414141414141010101010101010186
:105C700001010101010101010101010110101010D8
:105C80001010424242424242020202020202020258
:105C900002020202020202020202020210101010AC
:105CA00020000000000000000000000000000000D4
:105CB00000000000000000000000000000000000E4
:105CC00000000000000000000000000000000000D4
:105CD00000000000000000000000000000000000C4
:105CE00000000000000000000000000000000000B4
:105CF00000000000000000000000000000000000A4
:105D00000000000000000000000000000000000093
:105D10000000000000000000000000000000000083
